:020000040800F2
:10000000580F0020A9010008612E0008112B0008DC
:10001000052D0008410C0008D9360008000000003A
:100020000000000000000000000000001F33000876
:10003000210D0008000000001D33000821330008D6
:10004000C3010008C3010008C3010008C301000880
:10005000C3010008C3010008C3010008C301000870
:10006000C3010008C3010008C3010008C301000860
:10007000C3010008C3010008C3010008C301000850
:10008000C3010008C3010008C3010008C301000840
:10009000C3010008C3010008C3010008C301000830
:1000A000C3010008A1330008C3010008C301000810
:1000B000C3010008C3010008C3010008C301000810
:1000C000C3010008C3010008C3010008C301000800
:1000D000C3010008C3010008CD360008C3010008B1
:1000E000C3010008C3010008C301000800F002F8C2
:1000F00000F04BF80AA090E8000C82448344AAF177
:100100000107DA4501D100F040F8AFF2090EBAE874
:100110000F0013F0010F18BFFB1A43F0010318473B
:10012000BC520000DC520000103A24BF78C878C1ED
:10013000FAD8520724BF30C830C144BF04680C60ED
:10014000704700000023002400250026103A28BF35
:1001500078C1FBD8520728BF30C148BF0B60704739
:10016000642900F0B580732900F0118200207047E7
:100170001FB500F0C9FA04000020002103F084FB41
:10018000401C60601FBD10B510BD00F098FA11460C
:10019000FFF7EEFF03F0ECFA00F0C8FA03B4FFF744
:1001A000F2FF03BC00F00CFB0948804709480047F8
:1001B000FEE7FEE7FEE7FEE7FEE7FEE7FEE7FEE717
:1001C000FEE7FEE704480549054A064B7047000074
:1001D0009D330008ED00000858090020580F00204A
:1001E000580B0020580B00200FB41CB5084B06AA72
:1001F0007B4469460090059800F09FF90446002072
:10020000694600F0ADF920461CBC5DF814FB000007
:100210006D0300002DE9F0410E46044600202062E7
:100220002046E168884730B3252805D0D4E901216C
:100230009047206A401CF2E7E16820460027884783
:10024000050018D0A5F14100192802D820354FF437
:1002500000673246294620462760FFF781FF40B1FC
:10026000012804D0F61D26F007060836D8E7361D0B
:10027000D6E72846DAE7206ABDE8F08170B50C467B
:100280000546012A05D02878800600D5EA690023B2
:1002900002E0012305E05B1C934202D2E05C0028EF
:1002A000F9D1A869E618C01AA861286A184428621A
:1002B0002846AFF3008004E0D5E9012114F8010BD2
:1002C0009047B442F8D32846AFF3008070BD0000D9
:1002D0002DE9F0410646002410687529314616A51F
:1002E00010D0AFF30080002802DA404213A507E0E7
:1002F00031688A0701D512A502E0490704D511A586
:10030000012401E0AFF3008000210A2206F1240756
:1003100009E0B0FBF2FCB0FBF2F302FB1C00303052
:1003200078541846491C0028F3D123462A46304603
:10033000BDE8F04100F0A2B8000000002D00000070
:100340002B0000002000000070B5064600F092F877
:100350000468054630460A22002100F01CF92C6092
:1003600070BD30B505460B462A4613F8014B12F80E
:10037000010B08B1A042F8D01CB1002802D06D1CBE
:10038000F1E7284630BD10B5431C02E010F8011B10
:1003900071B18107FAD14FF0013202C88C1A8C4337
:1003A00014EAC211F9D0C01A0A0603D0C01E10BD4B
:1003B000C01A10BD0A0401D0801E10BD0902FCD075
:1003C000401E10BD421E12F8013F002BFBD111F858
:1003D000013B002B02F8013BF9D170474FF00002BE
:1003E0000429C0F0128010F0030C00F01B80CCF147
:1003F000040CBCF1020F18BF00F8012BA8BF20F8B5
:10040000022BA1EB0C0100F00DB85FEAC17C24BF08
:1004100000F8012B00F8012B48BF00F8012B7047B2
:100420004FF0000200B5134694469646203922BF8D
:10043000A0E80C50A0E80C50B1F12001BFF4F7AFD8
:10044000090728BFA0E80C5048BF0CC05DF804EBBA
:10045000890028BF40F8042B08BF704748BF20F828
:10046000022B11F0804F18BF00F8012B7047704726
:100470007047704700487047F40800202DE9F047A6
:100480000D4699469246044600F124080168880604
:1004900004D5E06921F01001216000E00120A842AC
:1004A00001DD471B00E00027A1697A1902EB090072
:1004B000081AA0612078C00602D42046AFF300805D
:1004C000002608E0D4E901211AF806009047206AC6
:1004D000401C761C20624E45F4DB2078C0060AD50D
:1004E0002046AFF3008006E0D4E901213020904798
:1004F000206A401C2062381EA7F10107F4DC07E0E7
:10050000D4E9012118F805009047206A401C2062B8
:10051000281EA5F10105F3DC2046AFF3008020780A
:10052000000602D50220BDE8F0870120FBE70000AD
:1005300001694A1C02610878704700B58FB0CDE9A7
:1005400001310021059105497944CDE90310114697
:100550006846FFF75FFE0FB000BD0000E5FFFFFF3C
:100560000A6802F8010B0A60704710B5436913B1BD
:10057000AFF3008001E0FFF781FE012010BD12788B
:1005800000F124010A7000224A700122EDE711688F
:100590004FF0FF32E9E72DE9F04791460F468046DC
:1005A0000446002614F8015B2DB100F031F8006814
:1005B000405DC007F6D12B2D02D02D2D18D0641E22
:1005C0004A463946204600F02BF827B13968A14247
:1005D00001D1C7F800804FF0020471050BD54042ED
:1005E000002803DDFFF746FF0460A007BDE8F087A1
:1005F00046F48066E4E70028F8DAFFF73BFF046082
:100600006FF00040F2E7000000487047F408002057
:1006100010B500F079F8001D10BD00BF6D3200006C
:100620002DE9F05F824615468B4600270AF101044A
:10063000B9460078302801D09DB113E014F8010BC1
:100640000127782803D0582801D045B10AE00DB120
:10065000102D07D1002714F8010B102502E0082502
:1006600000E00A250026B0460EE005FB080005FB69
:1006700006F101271FFA80F801EB1046B6F5803F1E
:1006800000D3B94614F8010B294600F041F80028C0
:10069000EBDABBF1000F05D00FB1641E00E0544649
:1006A000CBF80040B9F1000F06D0FFF7E3FE0221BE
:1006B0000160C81EBDE8F09F48EA0640FAE77546AB
:1006C000FFF7A2FFAE4605006946534620F007003B
:1006D000854618B020B5FFF775FDBDE820404FF006
:1006E00000064FF000074FF000084FF0000B21F01C
:1006F0000701AC46ACE8C009ACE8C009ACE8C009E9
:10070000ACE8C0098D4670470048704714090020C6
:100710003A2800D2303820F02002412A01D3A2F139
:100720003700884201D34FF0FF30704710B50446C0
:10073000AFF300802046BDE81040FFF72FBD00005A
:100740004FF0013C50F8042B51F8043B9A4221D160
:10075000A2EB0C03934313EACC1317D150F8042BEC
:1007600051F8043B9A4215D1A2EB0C03934313EAD0
:10077000CC130BD150F8042B51F8043B9A4209D109
:10078000A2EB0C03934313EACC13DBD04FF0000031
:10079000704700BFD01A01BAB1FA81F101F0180117
:1007A00022FA01F0CB40C1F12001DBB2C0B2C01A85
:1007B0002CFA01F3D11A914311EAC311E6D1704723
:1007C00001491820ABBEFEE726000200704700007A
:1007D00070B5044600688168C943C90717D18168AC
:1007E00021F00101816001F04FF905460AE000BFE8
:1007F00001F04AF9401B022804D920688068C043F0
:10080000C00706D020688068C043C007F0D0002031
:1008100070BDA06A40F01000A062E06A40F00100E4
:10082000E062012070BD0000F8B500260446009685
:1008300000688168C943C9072DD0816841F0010172
:100840008160164816490068B0FBF1F000E0401ED8
:1008500000900028FBD101F017F9054616E000BF13
:1008600001F012F9401B022810D920688068C043AB
:10087000C0070BD0A06A40F01000A062E06A40F010
:100880000100E06284F824600120F8BD20688068DF
:10089000C043C007E4D10020F8BD00002C000020B8
:1008A00040420F0000B5ADF5337D4FF4007168464E
:1008B000FFF7B6FD1FA321A223A180A8FFF794FC98
:1008C00080A96846FFF77EFD2D496846FFF77AFD4F
:1008D0002C482DA1027880A8FFF786FC80A96846E5
:1008E000FFF770FD2C482DA1027880A8FFF77CFC53
:1008F00080A96846FFF766FD2D482EA1027880A8E2
:10090000FFF772FC80A96846FFF75CFD2DA16846E1
:10091000FFF758FD6A4634A13448FFF765FC82B200
:100920004FF6FF733149324802F098F80DF5337DE8
:1009300000BD0000637269620000000061316A5806
:10094000415649524F367A0041542B4D5154545020
:1009500055423D302C222F7379732F25732F257329
:100960002F7468696E672F6576656E742F70726F6D
:1009700070657274792F706F7374222C0000000000
:1009800088530008030000205C226D6F64655C22C0
:100990003A25645C2C000000040000205C22686F93
:1009A000745F666C61675C223A25645C2C00000011
:1009B000050000205C2266616E5F666C61675C22E8
:1009C0003A2564007D5C2C5C2276657273696F6EDB
:1009D0005C223A5C22312E302E305C227D222C317A
:1009E0002C300D0A0000000025730000F4040020E4
:1009F000B000002000B5ADF5337D4FF400716846BE
:100A0000FFF70EFD25A327A229A180A8FFF7ECFB85
:100A100080A96846FFF7D6FC33496846FFF7D2FC49
:100A2000324833A1027880A8FFF7DEFB80A9684630
:100A3000FFF7C8FC334834A1027880A8FFF7D4FB45
:100A400080A96846FFF7BEFC4021344801F012F847
:100A5000024633A180A8FFF7C7FB80A96846FFF7CD
:100A6000B1FC334833A1027880A8FFF7BDFB80A911
:100A70006846FFF7A7FC34A16846FFF7A3FC6A4667
:100A80003AA13B48FFF7B0FB82B24FF6FF733849FB
:100A9000384801F0E3FF0DF5337D00BD63726962F4
:100AA0000000000061316A58415649524F367A00C1
:100AB00041542B4D5154545055423D302C222F73EC
:100AC00079732F25732F25732F7468696E672F65CF
:100AD00076656E742F70726F70657274792F706F97
:100AE0007374222C000000008853000806000020C8
:100AF0005C22637269625F666C61675C223A25649E
:100B00005C2C0000070000205C22626565705F7449
:100B1000656D705C223A25645C2C00000008014081
:100B20005C22766F6963655C223A25645C2C000068
:100B3000080000205C22626565705F68756D695C05
:100B4000223A2564000000007D5C2C5C22766572F0
:100B500073696F6E5C223A5C22312E302E305C223B
:100B60007D222C312C300D0A00000000257300007E
:100B7000F4040020B000002010B520A12248FFF7A7
:100B8000F0FB48B121A1FFF7ECFB401CFFF7DCFBB9
:100B90001F49087000F056FB1EA11B48FFF7E1FB40
:100BA00048B11AA1FFF7DDFB401CFFF7CDFB1B4945
:100BB000087000F047FB1AA11348FFF7D2FB48B1B9
:100BC00012A1FFF7CEFB401CFFF7BEFB17490870D0
:100BD00000F038FB16A10C48FFF7C3FB00280BD030
:100BE0000AA1FFF7BEFB401CFFF7AEFB13490870DC
:100BF000BDE8104000F026BB10BD000063726962C2
:100C00005F666C6167000000F40000203A0000009D
:100C1000060000206D6F64650000000003000020E6
:100C2000686F745F666C616700000000040000205C
:100C300066616E5F666C6167000000000500002061
:100C4000FEE7000070B5244C0821204600F012FF9A
:100C5000224D4FF4FA6658B11021204600F00AFFE9
:100C6000B8B12021204600F005FF18B3002070BD68
:100C7000304602F05BFD0821204600F0FBFE08B97B
:100C8000012028700821204600F0F4FE0028F9D049
:100C900020E0304602F04AFD1021204600F0EAFE36
:100CA00008B9022028701021204600F0E3FE002839
:100CB000F9D00FE0304602F039FD2021204600F047
:100CC000D9FE08B9032028702021204600F0D2FE6A
:100CD0000028F9D0287870BD000C014030000020B9
:100CE0001FB500200190029003904FF48070009097
:100CF0006946024800F0CEFD1FBD0000000801401B
:100D00001FB54FF4807000900120019002900320E5
:100D100003906946014800F0BDFD1FBD0008014079
:100D20007047000010B500212AA2084602F076FAAA
:100D30002AA20021202002F0D9FA294CE0780028CC
:100D400041D028A20021282002F068FA27A202211F
:100D5000002002F063FA21A20221202002F0C6FA4C
:100D6000628A0221282002F0ABF922A2042100208D
:100D700002F054FA19A20421402002F0B7FA207AB6
:100D8000012822D01EA20421482002F047FA0323A2
:100D9000E28A0421602002F063F91AA206210020F1
:100DA00002F03CFA0DA20621602002F09FFA4021D9
:100DB000184800F05FFE50B111A20621BDE81040B6
:100DC000682002F02BBA14A2BCE715A2DBE714A23C
:100DD000F3E70000C4A3CABD000000003A00000011
:100DE00000000020CAD6B6AF00000000CCE5CEC29D
:100DF00000000000CAC7B7F1C4F2B4B2000000009E
:100E0000B7F10000CAC7B7F1CCFDB5BDBFDEC9F967
:100E10000000000000080140D7D4B6AF0000000079
:100E2000CAC700000C4800B5816985B041F00401D3
:100E300081618069694600F0040004904FF480707D
:100E4000009001200190029003200390034800F0DD
:100E500021FD05B000BD0000001002400008014067
:100E600070B5FFF74DFF0122134D140221462846AD
:100E700000F005FE0F2002F059FC00222146284612
:100E800000F0FDFD40F2EE2002F050FC0122214670
:100E9000284600F0F4FD6E2002F048FCFFF720FF2A
:100EA000C82002F043FCFFF72BFF21462846BDE88F
:100EB0007040012200F0E3BD0008014010B5FFF7CB
:100EC000CFFFCC2002F0B4FC442002F0B1FC4FF480
:100ED000FA7002F02BFCFFF7C3FFCC2002F0A8FC55
:100EE000BE2002F0A5FC02F077FC044602F074FC80
:100EF0004FF6FF7101EA0020204302F060FE00225D
:100F0000034B02F06FFE02F02DFE80B210BD000018
:100F10000000E43F10B58EB04FF47A7402E0204632
:100F200000F0A6FC1FA120A000F09AF90028F6D13D
:100F300002E0204600F09CFC1FA120A000F090F9E8
:100F40000028F6D102E0204600F092FC1AA124A06D
:100F500000F086F90028F6D102E0204600F088FC77
:100F600015A123A000F07CF90028F6D12CA32FA214
:100F700030A16846FFF738F902E0204600F078FC1F
:100F800032A1684600F06CF90028F6D102E0204654
:100F900000F06EFC08A130A000F062F90028F6D144
:100FA0000EB010BD0000000041542B524553544F69
:100FB00052450D0A000000004F4B000041542B43E6
:100FC0004950534E54504346473D312C382C2270E3
:100FD0006F6F6C2E6E74702E6F7267220D0A000098
:100FE00041542B43574D4F44453D310D0A000000FD
:100FF00041542B434950534E54504346473D312CA6
:10100000382C22696F742E636F6E736F6C652E615E
:101010006C6979756E2E636F6D220D0A00000000F9
:1010200031323334353637383900000057494649B4
:101030000000000041542B43574A41503D22257384
:10104000222C222573220D0A000000005749464930
:1010500020474F5420495000415445300D0A0000AC
:1010600010B5ADF5027D23A000902DA32FA231A1D4
:1010700001A8FFF7B9F84FF4FA7402E0204600F037
:10108000F7FB38A101A800F0EBF80028F6D136A252
:1010900040A101A8FFF7A8F802E0204600F0E8FB15
:1010A00030A101A800F0DCF80028F6D140A342A24C
:1010B0004EA101A8FFF798F802E0204600F0D8FB07
:1010C00028A101A800F0CCF80028F6D117A314A29B
:1010D0004DA101A8FFF788F802E0204600F0C8FB08
:1010E00020A101A800F0BCF80028F6D10DF5027D82
:1010F00010BD000034464541353834343641413660
:10110000313338463930413637333841373341414E
:10111000383834324544323933413133000000002D
:1011200061316A58415649524F367A00637269629A
:101130000000000041542B4D515454555345524327
:1011400046473D302C312C224E554C4C222C22252A
:1011500073262573222C222573222C302C302C222E
:10116000220D0A004F4B000031323334357C736559
:10117000637572656D6F64653D335C2C7369676E72
:101180006D6574686F643D686D6163736861317C1F
:101190000000000041542B4D515454434C49454EDE
:1011A0005449443D302C222573220D0A00000000D2
:1011B000313838330000000061316A5841564952D5
:1011C0004F367A2E696F742D61732D6D7174742E84
:1011D000636E2D7368616E676861692E616C6979F1
:1011E000756E63732E636F6D0000000041542B4DCC
:1011F000515454434F4E4E3D302C222573222C2502
:10120000732C310D0A00000041542B4D515454539E
:1012100055423D302C222F7379732F25732F257360
:101220002F7468696E672F736572766963652F70B6
:10123000726F70657274792F736574222C310D0A88
:101240000000000010B54FF480610348FFF7C6F8B6
:1012500002490020488010BDF40000203200002028
:1012600070B50D460646C824FFF78DF881B23046AA
:1012700002F034FA0FE000BF00F014F840B929463C
:101280000748FFF76EF818B1FFF7DCFF002070BDCC
:101290000A2000F0EDFA641EA4B2EDD2012070BD68
:1012A000F40000200648418831B18288914205D17E
:1012B0000021418008467047012070478180FBE78C
:1012C0003200002010B501220449054801F08EFBD0
:1012D000FFF720FEBDE81040FFF7C2BE320000203D
:1012E000B000002072B6FEE7F8B50024009490F834
:1012F00024202546012A12D0012280F824204A68A1
:101300001F23072A0DD20668776B521E02EB82025A
:1013100093409F430B6893401F43776319E002207B
:10132000F8BD06680D2A0AD2376BD21F02EB820283
:1013300093409F430B6893401F43376309E0F76A6C
:101340000D3A02EB820293409F430B6893401F4388
:10135000F7620A68072306680A2A0AD3F7680A3A76
:1013600002EB420293409F438B6893401F43F76018
:1013700008E0376902EB420293409F438B68934039
:101380001F4337610A68102A01D0112A20D1124B5D
:1013900002689A4217D193681B0219D4936843F4E8
:1013A000000393600968102912D10C490C4A09689E
:1013B000B1FBF2F101EB8101490000E0491E00910F
:1013C0000029FBD104E0816A41F0200181620124FF
:1013D00080F824502046F8BD002401402C00002055
:1013E00040420F000068C06C704700002DE9F041DA
:1013F0004FF0000704003D467ED0A06A002628B9C1
:10140000E66284F82460204600F07EF82046FFF76C
:10141000DFF9A16AC90600D420B1A06A40F010002B
:10142000A06269E0A16A21F4885141F00201A16241
:101430006268E169237B0A4347EA43010A43A168E2
:101440004FF48077B94209D0012907D05FF000013D
:1014500094F814C0BCF1010F02D00AE03946F7E756
:10146000F3B1A36A43F02003A362E36A43F00103EC
:10147000E3622368D3F804C02CF4694C4CEA010CF5
:10148000C3F804C021688B68DFF870C003EA0C035E
:1014900013438B60A168B9420BD0012909D00CE03D
:1014A000DFF85CC0A3690CEB43330B4343F40061EA
:1014B000DFE7218A0D05A5F580152168CB6A23F4A5
:1014C00070032B43CB62216889680E4B194091420F
:1014D00008D1E662A16A21F0020141F00101A16296
:1014E000BDE8F081A06A20F0020040F01000A06288
:1014F000E06A40F00100E0620120F1E7FDF7E1FF62
:1015000000E0FFFFFE0E1FFF00B585B00021009137
:1015100001910291039100680E49884218D10E484A
:10152000816941F400718161816901F40071049164
:10153000816941F0040181618069694600F004001D
:1015400004901020009003200190044800F0A2F9BC
:1015500005B000BD00240140001002400008014019
:101560002DE9F84300270D460446009700F08CFA59
:10157000804620688168C90508D5A06A40F020002F
:10158000A06284F824700120BDE8F8834168C90591
:1015900003D4C06A10F4700F2AD0022000F012FBAE
:1015A0003B490968B1FBF0F62068036939490B42F1
:1015B0004FEA61014FEAA1121FD1C3684FEA611CD3
:1015C00013EA0C0F19D103690B4225D1C0681042F0
:1015D00022D1142023E0681C0AD02DB100F054FA67
:1015E000A0EB0800A84203D920680068800725D531
:1015F000206800688007EED52DE003690B4202D118
:10160000C168114206D0026923490A4206D1C06866
:10161000084203D1542002E0292000E0FC20464388
:10162000009816E0681C11D02DB100F02DFAA0EB47
:101630000800A8420AD90098B04207D2A06A40F038
:101640000400A06284F8247003209DE70098401CE9
:101650000090B042E6D321686FF012000860A06AE3
:1016600040F40070A06220688068C0F34240072800
:101670000CD1207B50B9A06A20F48070A062A06ACF
:10168000C00403D4A06A40F00100A06200207BE700
:101690002C000020244992244992240070B504466D
:1016A00090F8240001280DD0012084F82400204661
:1016B000FFF7BAF802004FF0000005D084F82400CC
:1016C000104670BD022070BDA16A40F2012399430B
:1016D00041F48071A1621F4D23681F49AB4218D1AC
:1016E0000E6816F4702F14D0A66A46F48016A6620F
:1016F0000E68760505D5A66A26F4005646F480568F
:10170000A662A66AF6040AD5E66A26F00606E6622E
:1017100006E0A66A26F48016A6625E68E9E7E06243
:1017200084F824006FF00200186020688368C3F317
:101730004243072B05D1A84208D1096811F4702F44
:1017400004D0816841F480118160B9E7816841F477
:10175000A001F9E7002801400424014010B5044627
:1017600090F82400012807D0012084F824002046A6
:10177000FFF72EF810B107E0022010BDA16A21F496
:10178000885141F00101A162002184F8241010BDAC
:1017900010B590F821100022022905D004218163A0
:1017A00080F82020012010BD01680B6823F00E0393
:1017B0000B6001680B6823F001030B6090F8403068
:1017C000C46B012101FA03F3636080F8211080F8F3
:1017D0002020104610BD000010B590F82110002404
:1017E000022903D00421816301243DE001680A68D5
:1017F00022F00E020A6001680A6822F001020A6003
:101800001A4A0168914201D1012121E0174A14329C
:10181000914201D110211BE0144A2832914201D19A
:10182000891515E0114A3C32914201D189140FE02B
:101830000E4A5032914202D14FF4803108E00B4AF7
:101840006432914202D14FF4801101E04FF0807177
:10185000064A083A5160012180F82110002180F8E1
:101860002010416B01B18847204610BD080002409E
:1018700070B5044600F008F90546601C02D0044823
:101880000078044400F000F9401BA042FAD370BD78
:10189000200000202DE9F84FDFF8B891002409F16D
:1018A000040A0AF1040B23460F270BF1040EC9E0CA
:1018B0000125A5402A40AA427DD1674ED1F804C037
:1018C000ACEB0608B44532D014DCBCF1030F3AD0BF
:1018D00009DCBCF1000F2AD0BCF1010F1CD0BCF117
:1018E000020F31D11DE0BCF1110F17D0BCF1120F66
:1018F0002AD119E0B8F5881F19D006DCB8F5803F69
:1019000015D0B8F5801F1FD111E0B8F5001F0ED01B
:10191000B8F5041F18D10AE0CB6815E0CB681B1D91
:1019200012E0CB6808330FE0CB680C330CE08B6817
:101930002BB1012B4FF0080303D0456104E00423D1
:1019400002E0056100E00023FF2A01D8064601E01D
:1019500000F104064FEA840501D9A5F12005D6F867
:10196000008007FA05FC28EA0C0803FA05F548EAA6
:101970000508C6F800804D68ED0062D5374DAE69A8
:1019800046F00106AE61AD6924F0030605F00105DD
:101990000095334D06EB050CDCF80850A607360F12
:1019A00007FA06F825EA0805DFF8B880404503D1B4
:1019B0004FF0000817E044E0DFF8AC80404502D16A
:1019C0004FF001080FE0DFF8A480404502D14FF04E
:1019D000020808E0DFF89880404502D14FF0030884
:1019E00001E04FF0040808FA06F848EA0508CCF8C8
:1019F00008804D68D9F80060ED034D4601D51643C7
:101A000000E096432E604D68DAF80060AD0355465D
:101A100001D5164300E096432E604D68DBF8006068
:101A2000ED025D4601D5164300E096432E604D68F9
:101A3000DEF80060AD02754601D5164300E096431E
:101A40002E60641C0D682A46E5407FF431AFBDE886
:101A5000F88F000000040140000011100010024047
:101A60000000014000080140000C0140001001404E
:101A7000001401408068084000D0012070470AB17E
:101A8000016170470904FBE7014880687047000066
:101A9000200000200248816802781144816070476C
:101AA00020000020074810B5016841F010010160D6
:101AB000032000F075F80F2000F006F800F024F87D
:101AC000002010BD0020024070B50D4D04464FF4BB
:101AD0007A712878B1FBF0F00A490968B1FBF0F09F
:101AE00000F0C6FB48B9102C07D200222146501E38
:101AF00000F036F800206C6070BD012070BD000061
:101B0000200000202C0000200C4808B5816941F01D
:101B100001018161816901F001010091C16941F018
:101B20008051C161C06900F0805000900448416854
:101B300021F0E06141F00071416008BD00100240F9
:101B400000000140002809DB00F01F020121914044
:101B50004009800000F1E020C0F80011704700004B
:101B6000F0B40E4B1B680C46C3F30223C3F1070508
:101B7000042D00D90425191D072901D2002300E0F6
:101B8000DB1E012606FA05F1491E214099409E40C0
:101B9000761E16403143F0BC01F0B8BD0CED00E0FC
:101BA000064900F0070208684FF6FF03184040EAB4
:101BB0000220034A10430860704700000CED00E06B
:101BC0000000FA0510B529A401461DCC86B08DE8A9
:101BD0001D002AA02A4C006804900020012923D06F
:101BE00002293AD010291DD161682268D20119D585
:101BF000C1F38342C9031DF8020009D5616804AA34
:101C0000C1F34041515C1F4AB2FBF1F1484301E08E
:101C10001D4948436168490204D440005FF0030154
:101C2000B0FBF1F006B010BD226AC2F30121012918
:101C300003D1920701D5C803F4E7022905D1626AEE
:101C4000920702D549F64040ECE70329EAD1216822
:101C50008903E7D54FF22440E4E700F033F96168E7
:101C6000C1F38131491C4900DAE700000203040591
:101C7000060708090A0B0C0D0E0F101001020000D8
:101C80000010024000127A0000093D002DE9F843DF
:101C900005460078354CC00754D0E0690026C000E6
:101CA00008D4E06940F08050E061E069012600F06E
:101CB000805000902E480168C90512D40168804602
:101CC00041F480710160FFF7DFFE074605E000BFC9
:101CD000FFF7DAFEC01B642823D8D8F80000C0053F
:101CE000F6D5206A10F4407021D0A98801F4407123
:101CF00081421CD0206A1F49012220F440700A60F2
:101D000000220A602062C00711D0FFF7BDFE07461F
:101D100041F2883808E000BFFFF7B6FEC11B41451D
:101D200002D90320BDE8F883206A8007F4D5206A31
:101D3000696820F44070084320621EB1E06920F019
:101D40008050E0612878800705D56068A96820F494
:101D50004040084360602878C00605D56068E9689F
:101D600020F48000084360600020DBE700100240A0
:101D700000700040400442422DE9F0470F46050044
:101D800061D0434E306800F00700B84209D2306895
:101D900020F0070038433060306800F00700B84298
:101DA00051D128683B4C810712D5400703D56068A4
:101DB00040F4E06060602878000703D5606840F474
:101DC000605060606068A96820F0F00008436060BF
:101DD0002878C00728D06868012810D02168022818
:101DE00010D0890700292EDA616821F00301014330
:101DF0006160FFF749FE804641F288390DE02168B5
:101E00008903EFE78901EDE7FFF73EFEA0EB08014C
:101E1000494502D90320BDE8F0876068696800F091
:101E20000C00B0EB810FEFD1306800F00700B84232
:101E30000BD9306820F0070038433060306800F07C
:101E40000700B84201D00120E5E72878400705D512
:101E50006068E96820F4E060084360602878000763
:101E600006D56068296920F4605040EAC1006060CE
:101E700000F038F86168084AC1F30311515CC840AA
:101E80000649086006480068FFF71EFE0020C2E70A
:101E90000020024000100240E83D00082C00002015
:101EA000240000200448054900684968044AC1F339
:101EB0000221515CC84070472C00002000100240F5
:101EC000F83D00080448054900684968044AC1F320
:101ED000C221515CC84070472C0000200010024015
:101EE000F83D000812A185B00FC98DE80F0014A0BD
:101EF000144A006804905168134801F00C03042B45
:101F000010D0082B0ED1C1F38343C9031DF8030081
:101F10000AD5516804AAC1F34041515C0A4A5043B2
:101F2000B0FBF1F005B0704708494843FAE70000FC
:101F300002030405060708090A0B0C0D0E0F10100A
:101F4000010200000010024000127A0000093D006A
:101F50002DE9F84F040070D02078C04DC00749D05B
:101F60006868C0F38100012807D06868C0F3810069
:101F7000022809D16868C00306D52868800339D5CE
:101F800060680028E7D035E06068B0F5803F0BD08E
:101F900010B1B0F5A02F11D0286820F4803028604F
:101FA000286820F4802002E0286840F4803028600F
:101FB000606890B1FFF768FD06460AE0286840F4C3
:101FC00080202860F0E700BFFFF75EFD801B6428DB
:101FD00073D828688003F7D50CE0FFF755FD064657
:101FE00005E000BFFFF750FD801B6428F0D828688B
:101FF0008003F7D420789A4E80074FF001094FF004
:10200000000839D5686810F00C0F07D06868C0F375
:102010008100022809D16868C00306D428688007B7
:1020200014D52069012808D110E02069B0B1C6F8A4
:102030000090FFF729FD074605E00AE1FFF724FDC0
:10204000C01B0228C4D828688007F7D528686169B2
:1020500020F0F80040EAC10028600DE0C6F80080DA
:10206000FFF712FD074604E0FFF70EFDC01B022834
:1020700023D828688007F7D4207800072CD5794822
:10208000A169D9B1C0F80090FFF7FEFC074604E053
:10209000FFF7FAFCC01B02280FD8686A8007F7D543
:1020A00071484FF4FA510068B0FBF1F0009000BFA6
:1020B0000098411E0091FAD20EE080E0C0F8008046
:1020C000FFF7E2FC074604E0FFF7DEFCC01B022836
:1020D00075D8686A8007F7D42078400760D5E8692A
:1020E0000027C00008D4E86940F08050E861E86942
:1020F000012700F0805000905C480168C90513D4A6
:102100000168834641F480710160FFF7BDFC82469F
:1021100006E000BFFFF7B8FCA0EB0A0064284ED829
:10212000DBF80000C005F5D5E06801280AD008B149
:10213000052813D0286A20F001002862286A20F0C0
:10214000040002E0286A40F001002862E06841F2E1
:10215000883B98B1FFF798FC82460BE0286A40F074
:1021600004002862EEE700BFFFF78EFCA0EB0A0137
:1021700059455AD8286A8007F6D50CE0FFF784FC49
:10218000824605E0FFF780FCA0EB0A0159454CD8D8
:10219000286A8007F6D41FB1E86920F08050E86112
:1021A000E06988B36968C1F38101022944D002283B
:1021B000C6F8608004D0FFF767FC044638E034E0DE
:1021C000FFF762FC074604E0FFF75EFCC01B022835
:1021D0002BD828688001F7D4206AB0F5803F05D15C
:1021E0006868A16820F4003008436860D4E90801F9
:1021F0000843696821F4741108436860C6F8609068
:10220000FFF742FC044606E025E000BFFFF73CFC78
:10221000001B022809D828688001F7D51BE000BF01
:10222000FFF732FC001B022802D90320BDE8F88F1B
:1022300028688001F4D40EE00128F7D06868226A8B
:1022400000F48031914204D1616A00F47010884238
:1022500001D00120EAE70020E8E70000001002407A
:1022600000004242800442422C00002000700040E6
:1022700010B5401EB0F1807F01D3012010BD4FF09A
:10228000E02460610F21601701F040FA0020A06196
:1022900007202061002010BD7047704770B590F88E
:1022A0003C20012A26D0012480F83C40022280F8FC
:1022B0003D2003685A689D6822F070060A68324320
:1022C0005A600D4B02689A4208D0B2F1804F05D097
:1022D0000A4B9A4202D00A4B9A4204D1496825F02F
:1022E00080031943916080F83D40002180F83C1044
:1022F000084670BD022070BD002C01400004004063
:102300000008004010B5040003D094F83D0010B15F
:1023100007E0012010BD002084F83C00204600F0BA
:102320001FF8022084F83D00211D206801F03EF8CE
:10233000012084F8460084F83E0084F83F0084F8C9
:10234000400084F8410084F8420084F8430084F897
:10235000440084F8450084F83D00002010BD0000D2
:1023600008B500680B49884212D10B48816941F4D5
:10237000006181618069002200F4006000901146D4
:102380001920FFF7EDFBBDE808401920FFF7DABB85
:1023900008BD0000002C01400010024090F83D10E4
:1023A000012901D001207047022180F83D10016809
:1023B000CA6842F00102CA6000680B49884208D02E
:1023C000B0F1804F05D00949884202D008498842BF
:1023D00004D1816801F00701062903D0016841F0AA
:1023E0000101016000207047002C01400004004002
:1023F0000008004070B5044690F83C00012817D052
:10240000012584F83C50022084F83D002068826851
:1024100022F0770222F47F4282600868502830D090
:102420000DDC20284DD005DC98B310283BD148E0C6
:10243000022070BD302844D0402834D139E06028D3
:1024400028D0702806D0B0F5805F2CD0B0F5005FA2
:1024500029D10AE0CB68D1E90121206800F0DCFF36
:102460002068816841F0770109E0CB68D1E901215A
:10247000206800F0D1FF2068816841F480418160CC
:1024800011E0CA684968206800F0D8FF5021206830
:1024900007E016E0CA684968206800F0E0FF6021A4
:1024A000206800F0C3FF84F83D50002084F83C0011
:1024B00070BDCA684968206800F0C0FF40212068EC
:1024C000EFE7226801461046EBE7704770B5044617
:1024D000006801694FF00005C943890715D4C16838
:1024E000C943890711D4E91E0161012020772068C2
:1024F00080698007204602D0FFF7E7FF04E000F084
:1025000098F8204600F096F8257720680169C943BD
:10251000490717D4C168C943490713D46FF00401B0
:102520000161022020772068806910F4407F2046F6
:1025300002D0FFF7CAFF04E000F07BF8204600F06D
:1025400079F8257720680169C943090716D4C1685D
:10255000C943090712D46FF00801016104202077F4
:102560002068C0698007204602D0FFF7AEFF04E074
:1025700000F05FF8204600F05DF8257720680169DB
:10258000C943C90617D4C168C943C90613D46FF03B
:1025900010010161082020772068C06910F4407F95
:1025A000204602D0FFF791FF04E000F042F82046F9
:1025B00000F040F8257720680169C943C90708D1B0
:1025C000C168C943C90704D1891E0161204600F0D2
:1025D00033F820680169C943090609D4C168C943B1
:1025E000090605D46FF0800101612046FFF754FE13
:1025F00020680169C943490609D4C168C94349062D
:1026000005D46FF040010161204600F073F82068A6
:102610000169C94389060BD4C168C943890607D437
:102620006FF0200101612046BDE87040FFF735BE24
:1026300070BD70477047000030B52A4900680968CE
:1026400088424ED1284801224189491C8BB2002181
:102650004381B3F5FA7F01D341818281038B5B1CF7
:102660009BB20383B3F57A7F01D301834283838BCB
:102670005B1C9BB28383B3F5AF6F01D38183C283AD
:10268000427813061CD5D307C38901D05B1C00E038
:102690005B1EC3819BB2B3F5006F03D322F08002AF
:1026A00042708170114A14684FF2FF052C4014608B
:1026B00014680F4D03F00703EB5C44EA0323136037
:1026C0004278D3070DD0038A40F2DC545B1C9BB2E6
:1026D0000382A34205D3018222F0010141F080016F
:1026E000417030BD68000020000000200C0C01404B
:1026F000E03D00087047704770470000F8B5026879
:1027000004461068D168536910F00F0F4FF00005B0
:1027100053D003F0010601F4907737435FD0C2072E
:1027200005D0CA0503D5226C42F00102226442079B
:1027300005D5DA0703D0226C42F002022264820738
:1027400005D5DA0703D0226C42F0040222640207A6
:1027500007D501F02002324303D0226C42F0080278
:102760002264226C002A34D0800604D5880602D563
:10277000204600F0A6FE20684069216CC0F380105E
:10278000090700D430B3204600F083FE2068416979
:1027900049061BD5416921F040014161A06BA8B1F8
:1027A00058494163A06BFFF717F8002811D0A06BC0
:1027B000416B01B0BDE8F040084783060FD58B069A
:1027C0000DD52046BDE8F84000F07BBE2046FFF75F
:1027D00093FFF8BD2046FFF78FFF2564F8BD266BF9
:1027E0002023012E52D1C60650D5CE064ED51068F4
:1027F00050680090506940062AD5A16B086840686F
:102800000004000CEAD0A68D8642E7D9E0858869ED
:10281000202818D0D06820F48070D06020684169EA
:1028200021F0010141612068416921F040014161CD
:1028300084F83E3025632068C16821F01001C16032
:10284000A06BFEF7A5FFA08DE18D401A81B219E0C3
:10285000A08DE18D401A81B2E08D0028BED0002904
:10286000BCD0D06820F49070D0602068426922F01B
:102870000102426184F83E3025632068C26822F07C
:102880001002C2602046FFF736FFF8BD05062BD5C3
:102890000D0629D594F83D002128F6D1A068B0F5A1
:1028A000805F01D12069B0B1206A411C216221689A
:1028B00000784860E08C401E0004000CE084E4D105
:1028C0002068C16821F08001C1602068C16841F0C2
:1028D0004001C160F8BD206A0088C0F30800506064
:1028E000206A801C2062E5E74006F3D54806F1D552
:1028F000D168204621F04001D16084F83D3000F0DD
:1029000006F9F8BD8334000870B5040004D094F8CB
:102910003D00002510B106E0012070BD84F83C5058
:10292000204600F023F8242084F83D002068C16888
:1029300021F40051C160204600F01EFE20680169AC
:1029400021F4904101612068416921F02A0141612F
:102950002068C16841F40051C1602564202084F8DA
:102960003D0084F83E00002070BD000030B585B009
:10297000002400940194029403940068184988424A
:102980002BD11848C16941F40031C161C16901F41A
:1029900000310491816941F0040181618069124D27
:1029A00000F0040004900420009002200190032015
:1029B000039069462846FEF76DFF0820CDE9000424
:1029C000694628460294FEF765FF0022114626203C
:1029D000FFF7C6F82620FFF7B5F805B030BD0000B8
:1029E00000440040001002400008014090F83E30D2
:1029F000202B0ED159B152B190F83C30012B08D0A8
:102A0000012380F83C300023036300F011BE012055
:102A1000704702207047000010B50C490068096833
:102A2000884212D101220A490848FFF7DFFF09490D
:102A30000888B0F5806F01D3002008800448064B59
:102A4000027808881A54401C088010BDB00000208D
:102A50003200002034000020F40000202DE9F8436B
:102A6000044690F83D001F4616460D4620284CD1DE
:102A7000C5B1BEB194F83C00012846D0012084F8CD
:102A80003C004FF00008C4F84080212084F83D004D
:102A9000FEF7FAFFA6848146E684A068B0F5805F61
:102AA00003D004E00120BDE8F883206928B12E4658
:102AB0005FF0000584F83C800EE00026FAE78021F4
:102AC000204600F0D0FDA0B9AEB116F8010B216888
:102AD0004860E08C401EE084E08C4B464FF00002E2
:102AE00000970028EBD14FF04001204600F0BBFDDD
:102AF00030B10320D7E735F8020BC0F30800E6E752
:102B0000202084F83D000020CDE70220CBE770476D
:102B1000FEE7000010B5FEF795F810490028087090
:102B20000BD000230122012808D002280CD0032852
:102B300003D1CA70487970B14B7110BDC87808B123
:102B4000CB7010BDCA7010BDCA70087908B10B7186
:102B500010BD0A7110BD4A7110BD000000000020B8
:102B60003EB500211148009101910F4A0291026087
:102B700081600173017501244FF460220461C26118
:102B80004160FEF733FC08B1FEF7ACFB0420CDE951
:102B900000040720029069460448FEF7A5FB0028C0
:102BA00001D0FEF79FFB3EBD00240140380000200D
:102BB0002DE9F04186B00024274800940194029446
:102BC0000394816941F004018161816901F004018C
:102BD0000491816941F00801816180691F4F00F013
:102BE000080048F203050490002229463846FEF703
:102BF00046FFDFF86C8000224FF470614046FEF71C
:102C00003EFF012240214046FEF739FF0095032692
:102C100001250396CDE9015469463846FEF73AFE90
:102C200040208DE8310069463846FEF733FE4FF408
:102C30007460CDE90005CDE9024669464046FEF7DD
:102C400029FE38208DE8310069464046FEF722FE15
:102C500006B0BDE8F081000000100240000801400D
:102C6000000C014010B586B0002417480094019470
:102C70000294039404941349059401603F21C0E930
:102C8000011440F2E731C0E9031444618461FFF7A5
:102C900039FB08B1FEF726FB4FF4805000906946DF
:102CA0000948FFF7A7FB08B1FEF71CFB049404A931
:102CB00005480594FFF7F2FA002801D0FEF712FB51
:102CC00006B010BD002C0140680000200C4810B573
:102CD0000A4901604FF4E1314160002181600C221A
:102CE000C160C0E904128161C161FFF70DFE0028D7
:102CF00003D0BDE81040FEF7F5BA10BD0044004017
:102D0000B0000020FEE700002DE9F0414E4C002508
:102D1000A08901282AD1A581608A4FF47A77B84228
:102D200000D20646FEF7CAF86082B84200D9668231
:102D30004648FEF7B3FC40F2E7314448FEF710FC8A
:102D400018B94248FEF74EFBA0824048FEF706FD48
:102D5000A08A00F034FF00223D4B00F0ABFD0022C2
:102D60003C4B00F03FFF00F0FDFEE082608B01284D
:102D700002D16583FDF796FDE08B012802D1E58342
:102D8000FDF738FE344F40213846FEF773FE01262A
:102D900028B1A07901280BD1E078012808D160780A
:102DA000C10705D1A17819B9A67040F08100607003
:102DB00040213846FEF75EFE0100284808D0012277
:102DC0004021FEF75CFEE08A142803D9267202E057
:102DD0000022F5E72572E07828B9608AB0F5AF7F68
:102DE00012D226716571E571207A4FF400410128F5
:102DF00017D0E079012814D000223846FEF73FFEB4
:102E0000607980B101220FE0A0F2731125710929C8
:102E100001D86671E571B0F5BE7FE5D96571E671DF
:102E2000E2E70122E9E7002202213846FEF727FE09
:102E3000207908B1012200E000223846BDE8F041C7
:102E40000121FEF71CBE0000000000203800002019
:102E500000FEAF400000594000080140000C014056
:102E6000FEE770B5002404F1B000C0B200F0B4F980
:102E7000002000F0B1F9102000F0AEF9002500208C
:102E800000F0BBF96D1CEDB2802DF8D3641CE4B2E8
:102E9000082CE8D370BD000070B5154886B0816974
:102EA00041F008018161816901F0080104918169A3
:102EB00041F0080181618069012400F0080004905C
:102EC0004FF48040CDE900040A4E032569463046A0
:102ED000CDE90245FEF7DEFCE003CDE900046946DA
:102EE0003046CDE90245FEF7D5FC06B070BD0000C6
:102EF00000100240000C014070B50122104DD403B7
:102F000021462846FEF7BBFD0322521EFDD20122B8
:102F1000960331462846FEF7B2FD0222521EFDD22C
:102F2000002231462846FEF7AAFD0222521EFDD29B
:102F300021462846BDE870400022FEF7A0BD0000F3
:102F4000000C014070B50D4C4FF48045002229461D
:102F50002046FEF794FD0322521EFDD20122D1032A
:102F60002046FEF78CFD0222521EFDD22946204645
:102F7000BDE870400122FEF782BD0000000C014058
:102F800010B5FFF789FFAE2000F026F9002000F011
:102F900023F9102000F020F9402000F01DF98120D5
:102FA00000F01AF9CF2000F017F9A12000F014F971
:102FB000C82000F011F9A62000F00EF9A82000F0BA
:102FC0000BF93F2000F008F9D32000F005F90020AC
:102FD00000F002F9D52000F0FFF8802000F0FCF8A6
:102FE000D92000F0F9F8F12000F0F6F8DA2000F02E
:102FF000F3F8122000F0F0F8DB2000F0EDF84020AC
:1030000000F0EAF8202000F0E7F8022000F0E4F8F1
:103010008D2000F0E1F8142000F0DEF8A42000F08C
:10302000DBF8A62000F0D8F8AF2000F0D5F800219A
:10303000BDE810400846AFF3008010B50446B0313B
:10304000C8B200F0C9F8102040EA141000F0C4F82B
:1030500004F00F00BDE8104040F0010000F0BCB8E3
:103060002DE9F04700261D4690468946074634461E
:1030700021E0281B401EC1B20A2000F0A5FBB8FBCE
:10308000F0F00A21B0FBF1F201FB120226B9681E32
:10309000844201DA32B1012607EBC400C0B24946CE
:1030A000303204E007EBC400C0B23022494600F0E1
:1030B000F7F8641CE4B2AC42DBD3BDE8F087000053
:1030C0002DE9F04104466420B2FBF0F00F460A26D9
:1030D000B0FBF6F1154606FB1102012339462046E6
:1030E0001E32FFF7BDFFB5FBF6F0B0FBF6F106FBB5
:1030F000110204F10800C0B2012339461E32FFF765
:10310000AFFF04F11000C0B20BA2394600F0EEF898
:10311000B5FBF6F006FB105204F11800C0B2012313
:1031200039461E32FFF79CFF2034E0B23946BDE835
:10313000F04102A200F072B82E000000A1E60000EB
:103140002DE9F041234D064600244FF480484FF40A
:103150000047300601D5012200E000224146284602
:10316000FEF78DFC0220401EFDD201223946284682
:10317000FEF785FC0220401EFDD20022394628467B
:10318000FEF77DFC0220401EFDD27006641C060E78
:10319000E4B2082CDDD3012241462846FEF76FFC3D
:1031A0000221491EFDD2012239462846FEF767FC5E
:1031B0000222521EFDD24FF400512846FEF75AFC5F
:1031C0000446002239462846FEF759FC2046BDE851
:1031D000F0810000000C014010B50446FFF78CFEA2
:1031E0007820FFF7ADFF0020FFF7AAFF2046FFF78A
:1031F000A7FFBDE81040FFF7A5BE10B50446FFF7D6
:103200007BFE7820FFF79CFF4020FFF799FF2046C8
:10321000FFF796FFBDE81040FFF794BE2DE9F04799
:10322000154689460646DFF8748031E000204146A5
:1032300000EB001311F81340944222D101EB430735
:103240006C787B78A3421CD149463046FFF7F5FEE7
:10325000002438198078FFF7D0FF641CE4B2102CEA
:10326000F7D309F10100C1B23046FFF7E6FE0024B2
:103270003819807CFFF7C1FF641CE4B2102CF7D32F
:1032800003E0401CC0B21E28D2D31036F6B2AD1CEB
:103290002A78002ACAD1BDE8F0870000003E000865
:1032A0002DE9F0410F4680460025A2F12004FFF7EA
:1032B000C4FE0D4E05EB0410305CFFF79EFF6D1C45
:1032C000082DF7D37F1CF9B24046FFF7B6FE002564
:1032D00005EB04103044007AFFF78FFF6D1C082DBA
:1032E000F6D3BDE8F0810000964100082DE9F041D9
:1032F00017460E46044600250BE031462046FFF7F0
:10330000CFFF0834E4B2782C02D90024B61CF6B200
:103310006D1C7A5D002AF0D1BDE8F08170477047DE
:10332000FEF7B8BB30B593B028216846FDF778F8B2
:1033300014210AA8FDF774F80024022501200F9437
:10334000049000951020059012944FF46010CDE980
:1033500008401194109407956846FEF7F9FD08B1EE
:1033600072B6FEE70F20CDE90A054FF48060CDE983
:103370000C4002210AA80E94FEF7FEFC08B172B6BA
:10338000FEE74FF4004011900F950FA8FEF77EFC6A
:10339000002801D072B6FEE713B030BD70470000C0
:1033A0000148FFF793B8000068000020F0B50268FC
:1033B000164B174C174D4FF08047984205D0B84236
:1033C00003D0A04201D0A84203D122F070064A687F
:1033D0003243984205D0B84203D0A04201D0A8425F
:1033E00003D122F44074CA6822434C6922F080025F
:1033F000224302608A68C2620A688262984201D1EE
:103400000969016301214161F0BD0000002C014008
:10341000000400400008004010B5846842EA03221E
:1034200024F47F440A432243826010BD826822F064
:1034300070020A4342F007018160704710B5036AC9
:10344000046A24F001040462846924F0F00444EA6C
:10345000021423F00A020A438461026210BD10B50F
:10346000036A23F0100303628369046A23F4704340
:1034700043EA023224F0A00343EA011182610162AF
:1034800010BD10B5406A0021C185C184FFF734F931
:1034900010BD0168CA6822F49072CA6001684A6966
:1034A00022F001024A61016B012904D10168CA6856
:1034B00022F01002CA60202180F83E100021016332
:1034C000704708B590F83E10222901D0022008BDAF
:1034D00082684FF480539A4201D1016921B1816A17
:1034E0009A421BD04AB10AE00268816A5268C2F36C
:1034F00008020A80816A891C08E0026972B10268C8
:10350000526802F07F020A70816A491C8162C18D93
:10351000491E0904090CC18503D019E002685268EC
:10352000F1E70168CA6822F02002CA600168CA682F
:1035300022F48072CA6001684A6922F001024A617D
:10354000202180F83E10016B012903D0FFF764FAB7
:10355000002008BD002101630168CA6822F0100242
:10356000CA6001680A68D20602D50A6849680091F3
:10357000818DFFF7C0F8EBE770B50446006801697C
:10358000E26821F44051114301612169A0680843B8
:10359000616908432168CA6841F20C639A43024397
:1035A000CA6020684169A26921F4407111434161F8
:1035B0001E492068884202D1FEF784FC01E0FEF734
:1035C00071FC00EBC00101EB001260686421800017
:1035D000B2FBF0F3B3FBF1F36FF018067343B2FBE9
:1035E000F0F5B2FBF0F605EB8305322303EB05158E
:1035F000B5FBF1F5B6FBF1F605F0F00505EB0615A8
:10360000B2FBF0F6B2FBF0F0B0FBF1F06FF0180295
:10361000504306EB800003EB0010B0FBF1F0216893
:1036200000F00F002844886070BD000000380140A1
:1036300081628285C28500210164222280F83E20B9
:1036400080F83C100168CA6842F48072CA60016860
:103650004A6942F001024A610068C16841F02001F4
:10366000C160002070472DE9F041984617460E468C
:103670000446069D1DE0681C1BD02DB1FEF704FA20
:10368000A0EB0800A84214D92068C16821F4D071C9
:10369000C1602068416921F001014161202084F866
:1036A0003D0084F83E00002084F83C000320BDE883
:1036B000F0812068006836EA000004D00020B8429B
:1036C000D9D00020F3E70120F9E700000148FFF717
:1036D00015B80000B0000020FEE700002DE9F04121
:1036E0000D460746002440F2E73608E039467F1CC5
:1036F000334601220448FFF7B1F9641CA4B2AC427E
:10370000F4D3BDE8F0810000B00000200907090EE5
:10371000002804DB00F1E02080F80014704700F07E
:103720000F0000F1E02080F8141D70472DE9F041F2
:103730004FF0E0240546A769FEF7A6F9AD0106465D
:10374000BD420BD9FEF7A0F9B042FBD0781B00F5C3
:103750007A40A1698142FCD8BDE8F0817D1BA06957
:10376000A842F9D9FEF790F9B042F8D0F4E700008A
:10377000FEF798F9FFF7D6FDFFF71AFAFFF772FA8E
:10378000FFF7A4FAFFF7ECF90C48FEF707FE012259
:103790000B490C48FFF72AF9FFF7F2FBFFF761FB33
:1037A000FDF740FBFDF78EFDFFF7B4F9FFF7ACFA2C
:1037B000FDF7B8FAFDF7E0F9F6E700006800002031
:1037C00032000020B00000200246012000E05043FB
:1037D000491EC9B2FBD270472DE9F04100244FF4D5
:1037E0008076124FFDF78CFA002231463846FEF7FC
:1037F00046F90120FFF79AFF6D080122314638464D
:10380000FEF73DF9FDF76CFA31463846FEF732F91E
:10381000012801D145F080053C20FFF787FF641C9B
:10382000E4B2082CDED32846BDE8F0810008014050
:103830002DE9F0410546FDF763FA124F00244FF4DD
:103840008076002231463846FEF719F90120FFF74D
:103850006DFFE80701D0012200E000223146384622
:10386000FEF70DF93C20FFF761FF01223146384693
:10387000FEF705F9641C6D08E4B2082CE1D3BDE83D
:10388000F08100000008014010B500290AD0087836
:10389000002807D005487844FCF752FF002801D0E3
:1038A000002010BD0248784410BD0000661B0000D7
:1038B0005E1B00002DE9C04130B4DFF8A0C23CEA35
:1038C000111418BF3CEA131400F0EC8081EA0305E0
:1038D0001CEA111444EAD57418BF1CEA131500F051
:1038E000C780A4EB05044FF0004545EAC12145EA35
:1038F000C32341EA505143EA525304F17F74994281
:1039000004F500344FEAC0204FEAC22208BF9042BB
:1039100000F09C804FEA13650FF24016765D4FEA87
:10392000134506FB05F7C7F1807706FB07F74FEA5B
:10393000D737A7FB03687642C8F58038A7FB06CEC9
:1039400038BFA8F1010807FB08E64FF0000EA6FB00
:10395000028CE6FB03CEDCF1000CCEF1004E38BF4A
:10396000AEF1010EA6FB0C584FF000074FF000051A
:10397000E6FB0E87A1FB08C6A0FB07CE16EB0E06E2
:1039800045F10005E1FB076515F1E04E7EBFA4F5AA
:1039900080345FEA46066D4116F1800745F1000567
:1039A0004FEA17274FEA066647EA0567A6F1DE46A3
:1039B000B6F1805F4FEA15251FD9384624F0010C77
:1039C00005EBC471BCF1FE6F01EB0C1102D8F0BC29
:1039D000BDE8008124425CBF01F5801E9EEAC47FE1
:1039E00002D4F0BCBDE80081244238D4F0BCA1F17F
:1039F000C041BDE8004100F0EDB94FEAD22242EAF1
:103A000043524FEAD323A7FB02864FEAD02040EA75
:103A1000415007FB03661EEA0E0F4FEAD12105FB5A
:103A2000026658BFA6EB0056B6EB00564FEA520EA0
:103A30004EEAC37E18EB0E0E56EB530EBDD518EBB7
:103A400002085E417F1C55F10005B6E74FF4801572
:103A50004FF000074FF000064FF00008ADE7F0BC54
:103A60004FF0000001F1C04101F00041BDE80081CC
:103A700011EA0C1F0CEA131500D00CE013EA0C1F1E
:103A800000F025804FF00000F0BC81EA030101F056
:103A90000041BDE80081F0BCBDE8004181EA0301BE
:103AA00000F098B9F0BCBDE8004170B500F044F9F1
:103AB000097EFC3E00F007B881EA03014FF00000E8
:103AC00001F00041704781EA030100F083B9F0BCC6
:103AD000BDE800414FF0000021497047FFFDFBF9B0
:103AE000F7F5F4F2F0EEEDEBE9E8E6E4E3E1E0DE31
:103AF000DDDBDAD8D7D5D4D3D1D0CFCDCCCBCAC8A3
:103B0000C7C6C5C4C2C1C0BFBEBDBCBBBAB9B8B7C9
:103B1000B6B5B4B3B2B1B0AFAEADACABAAA9A8A8BC
:103B2000A7A6A5A4A3A3A2A1A09F9F9E9D9C9C9B8A
:103B30009A99999897979695959493939291919035
:103B40008F8F8E8E8D8C8C8B8B8A898988888787C6
:103B50008685858484838382828181800000FF073B
:103B60000000F87F4FEA1153A3F58063D3F11E03E1
:103B7000A8BFD3F1200C08DB4FF0004242EAC1227B
:103B800052EA505232FA03F0704709420BD4102B1C
:103B9000C4BF0020704703F5787CBCF1FF3F05D01F
:103BA0004FF0FF3070474FF00000704770B500F0E5
:103BB000C3F800BF4992248000207047F0E7B0FAB4
:103BC00080F310FA03F10AD0C3F11D0303F58063FB
:103BD0004FEA41504FEA035202EBD12170474FF0B8
:103BE00000007047DFF848C170B51CEA111E1EBF07
:103BF0001CEA13159EEA0C0F95EA0C0F00F06F807B
:103C000081EA030423EA4C134EEAD47E21EA4C11E4
:103C100041F4801143F48013AE44A1FB024CA0FB9D
:103C20000365AEF17F7E361955EB0C05A1FB034C05
:103C30004CF10003A0FB021C16EB0C06654153F18E
:103C40000003094218BF46F0010613F4007F0BD1B0
:103C50004FEA03314FEA0530340341EA155140EA97
:103C600016506FF003020AE04FEAC3214FEAC52065
:103C7000F40241EA555140EA56506FF0020202EB5D
:103C80002E4201EB025585EACE710AD05FEA440C60
:103C900018BF24F0004450F1000041F1000120EA77
:103CA000D47040F2FE7C624500D270BDA84214BFC1
:103CB0004FF080444FF04044002E08BF0024BEF176
:103CC000806FA8BFA1F1C041BDE8704080F2828042
:103CD0004FF0000001F1C04101F0004170479EEA41
:103CE0000C0F0CEA131518BF95EA0C0F06D04FF015
:103CF000000081EA030E0EF0004170BD00F01CF8D8
:103D00008900013E00F007B800F009B84FEA430C03
:103D10005FEA5C5C08D081EA030100F05BB84FEA1F
:103D2000410C5FEA5C5CF6D14FF00000014970473E
:103D30000000FF070000F87F0EF1020E2EF0030EC8
:103D40005EF8046B364205D4012A43EB030515F5F2
:103D5000001F12D8012841EB010C1CF5001F0CD8E4
:103D60000ED14FEAD17C15F5001F0CEB4C0C0CF179
:103D7000020C08BF4CEBD37C04E04FF0080C01E0D0
:103D80004FEAD37C0CEB4C0526FA05F606F0070645
:103D9000B6F1040C06D20EEB860CBDE870404CF078
:103DA000010C6047DFE80CF0090B02024FF0004104
:103DB0004FF00000A1F5002170BD19461046012802
:103DC00051EB010418BFD4F5001484BF002001F0AA
:103DD000004170BD0808A0F500114FEA310170479D
:103DE00001030206040C08090000000000000000A6
:103DF0000102030406070809000000000102030491
:103E0000CEC21060028C0000FE9292929292FE004E
:103E1000000004047E01407E42427E427E42427E99
:103E20004000CAAA1060028C00FE92929292929276
:103E3000FE00000004047E014448507F40407F5053
:103E400048444000A1E6060909E6F80C0402020213
:103E50000202041E0000000000071F302040404006
:103E6000404020100000B6C80000FC242424FC259B
:103E70002624FC242424040040308F80844C5525C3
:103E80002525554C80808000CCE5008060F8071027
:103E90001010D0FFD01010100000010000FF10081B
:103EA000040B08FF080B04081000C9CF0000000035
:103EB0000000FF4040404040400000004040404083
:103EC00040407F404040404040404000CFC202025E
:103ED00002020202FE02024282020202020000000C
:103EE00000000000FF000000000106000000CFDE1F
:103EF00000FE225A8600FE9292929292FE000000EC
:103F000000FF04080700FF4020030C14224140007A
:103F1000C9E8404042CC0040A09E8282829EA02000
:103F200020000000003F908840432C10284641802C
:103F30008000D6C3001715D55557557D555755D513
:103F4000151700004040407F555555555555557F34
:103F500040404000E3D000F80122A0A2A222FE22AD
:103F6000AA3202FE000000FF0010130A4B20170CBB
:103F7000133880FF0000D6B5008060F80704E4A481
:103F8000A4BFA4A4E4040000010000FF40407F4A55
:103F90004A4A4A4A7F404000CAD6000024242424CA
:103FA00024FC2222222322000000020202020242FA
:103FB000827F0202020202020200D7D4000000F84F
:103FC000888C8A89888888F800000000000000FF3B
:103FD00044444444444444FF00000000B6AF40441D
:103FE000C4444444401010FF101010F00000103C76
:103FF000131014B840300E014080403F0000C4A3AD
:104000001010D0FF9014E4AFA4A4A4AFE404000007
:10401000040300FF00894B2A1A0E1A2A4B888000DD
:10402000CABD101090909090901010FF10101116B3
:104030001000002060203F10101000030C102040E2
:10404000F800CAC70000007F494949494949497FEA
:10405000000000008141211D214181FF898989895A
:1040600089818100B7F100028282422212FA06227F
:10407000224242820000010100FC44444445444481
:1040800044FC00000100C4F20000FE1212121212E1
:10409000F21212129E00000040300F40211947809A
:1040A0007F030E1120400000B4B20000FC04444421
:1040B0004445F64444444444040040300F20100872
:1040C0000601FF01060810202000BCEC1010D0FFF4
:1040D000905020504C434C5020404000040300FFBF
:1040E00000414458414E605847404000B2E21060E1
:1040F000028C00FE02F202FE00F800FF0000040441
:104100007E018047300F10270047807F0000B5BD3B
:104110004262524AC6425262C200F80000FF0000EA
:1041200040C444447F24242420000F40807F0000AA
:10413000BFDE00003E22223E0080003E22A23E0062
:1041400000008282424222120A070A12224243825D
:104150008200C9F90414D454545454DF54545454B0
:10416000D414040080601F02020202030202020251
:1041700003000000CCFD00FC0404FC0000FC4444EF
:1041800044C243424000000F04040F80601F00003F
:1041900000FF000000000000000000000000000020
:1041A000000000000000000000F800000000000017
:1041B00000333000000000100C06100C0600000058
:1041C00000000000000040C07840C0784000043F7C
:1041D00004043F040400007088FC0830000000184C
:1041E00020FF211E0000F008F000E0180000002170
:1041F0001C031E211E0000F00888700000001E2114
:1042000023241927211010160E00000000000000C2
:10421000000000000000000000E0180402000000A0
:1042200000071820400000020418E00000000040D1
:10423000201807000000404080F08040400002024B
:10424000010F01020200000000F000000000010167
:10425000011F01010100000000000000000080B00B
:1042600070000000000000000000000000000001DD
:104270000101010101010000000000000000003008
:1042800030000000000000000000806018040060A2
:1042900018060100000000E010080810E000000F00
:1042A000102020100F00001010F800000000002067
:1042B000203F2020000000700808088870000030AF
:1042C0002824222130000030088888483000001857
:1042D000202020110E000000C02010F80000000770
:1042E0000424243F240000F80888880808000019E6
:1042F000212020110E0000E0108888180000000F17
:10430000112020110E0000380808C83808000000ED
:10431000003F000000000070880808887000001C42
:10432000222121221C0000E010080810E0000000FB
:10433000312222110F00000000C0C0000000000068
:10434000003030000000000000800000000000008D
:104350008060000000000000804020100800000184
:104360000204081020004040404040404000040447
:104370000404040404000008102040800000002011
:10438000100804020100007048080808F00000004E
:10439000003036010000C030C828E810E0000718DF
:1043A000272423140B000000C038E0000000203C4C
:1043B00023020227382008F8888888700000203FF0
:1043C000202020110E00C030080808083800071807
:1043D00020202010080008F808080810E000203FFE
:1043E000202020100F0008F88888E8081000203FDF
:1043F00020202320180008F88888E8081000203FB3
:10440000200003000000C03008080838000007182A
:104410002020221E020008F808000008F808203FAB
:10442000210101213F20000808F8080800000020B1
:10443000203F2020000000000808F8080800C08085
:1044400080807F00000008F888C028180800203FFE
:1044500020012638200008F8080000000000203F56
:1044600020202020300008F8F800F8F80800203F4D
:10447000003F003F200008F830C00008F808203F47
:10448000200007183F00E01008080810E0000F1097
:10449000202020100F0008F808080808F000203F2E
:1044A000210101010000E01008080810E0000F18C9
:1044B000242438504F0008F8888888887000203FEE
:1044C0002000030C302000708808080838000038ED
:1044D000202121221C00180808F8080818000000F4
:1044E000203F2000000008F808000008F808001F1E
:1044F000202020201F000878880000C8380800000D
:1045000007380E010000F80800F80008F800033C26
:104510000700073C030008186880806818082030EE
:104520002C03032C30200838C800C83808000000CD
:10453000203F2000000010080808C8380800203874
:10454000262120201800000000FE020202000000C8
:10455000007F40404000000C30C000000000000020
:1045600000010638C00000020202FE000000004008
:1045700040407F000000000004020202040000002E
:10458000000000000000000000000000000080802B
:104590008080808080800002020400000000000013
:1045A00000000000000000008080808000000019F2
:1045B000242222223F2008F8008080000000003FD3
:1045C000112020110E000000008080800000000EED
:1045D000112020201100000000808088F800000ECB
:1045E000112020103F200000808080800000001FEC
:1045F000222222221300008080F088888818002060
:10460000203F202000000000808080808000006B20
:1046100094949493600008F8008080800000203F0C
:10462000210000203F20008098980000000000201A
:10463000203F20200000000000809898000000C06B
:104640008080807F000008F8000080808000203F8C
:1046500024022D302000000808F80000000000208F
:10466000203F202000008080808080808000203FCC
:1046700020003F20003F8080008080800000203F9D
:10468000210000203F200000808080800000001F6B
:10469000202020201F00808000808000000080FFFC
:1046A000A12020110E000000008080808000000EFC
:1046B000112020A0FF80808080008080800020204A
:1046C0003F212000010000008080808080000033B6
:1046D000242424241900008080E080800000000051
:1046E000001F202000008080000000808000001F4C
:1046F000202020103F2080808000008080800001EA
:104700000E300806010080800080008080800F301D
:104710000C030C300F00008080008080800000209F
:10472000312E0E31200080808000008080808081CA
:104730008E7018060100008080808080800000213B
:10474000302C2221300000000000807C020200009A
:104750000000003F404000000000FF00000000009B
:104760000000FF0000000002027C8000000000400A
:10477000403F0000000000060101020204040000A6
:10478000000000000000FFFF0303F3F3F3F3F30363
:1047900003FF0000BFBFF3B3B30F0F707003CCCCA7
:1047A000BFBF3C43430000CCCC4F4FF37C7C303048
:1047B00030307FB3B33030800000FFFF03F3F3F3FA
:1047C000F3F3F303FFFFCFCF08080909C9C9C9C82C
:1047D000C8CFC0C0C9C937C9C9F0F0FEFEC60F0FA7
:1047E000C1C1380606CECEF1F10808C10808F6F6B8
:1047F000CECE30C9C9303039C0C00F0F08C9C90981
:1048000009C9C9C8CFCF868606067F3F01FEFEE7ED
:10481000E766808001017907077F7FE0E067838199
:10482000E6E67F9F9F1E1E01010606811F1FFFFFF8
:10483000606080E0E0FFFFE004067878678787FF2C
:10484000FF1F1F997E7EEFEF606090900FFCFC735E
:10485000739380809C9CEF9090131383836F101050
:104860001F1F8FC0E090909F9FE3E303F3F39090AE
:104870008080731C1CE3E3036F6F1313EC83830FBF
:104880000F9F9F0F9F9F19191E1EF9F9E6E7E70674
:1048900006D907070101E10707D8D80707D8DEDEE8
:1048A000E6E6C7D9D9272721210101C0E7E7E1E1E1
:1048B0001919C61E1EE7E7DE3E3ED8D8DF3F3FDEB1
:1048C000DE212100C7C7F3F36F6FF0F08F6C6C002F
:1048D000006CE3E36F6F90EFEFF3F3FCFC9FEFEFFF
:1048E0006C6C8010108080F0F09090101F1F9C9CCA
:1048F0000F0F70E0E0FFFF9F7C7CEFEF837373830B
:10490000838383E36F6FF3F33030B1B1B1B0B03074
:1049100030F20303FCFC7F77738F8F4FCFFDCDCD3B
:10492000FEFEB13C3CFDFD3D3D8F8F3CCECEF1F116
:10493000B2B272F1F1C3C3FF8282B3B383FFFE034D
:10494000030F0FCD3232FFFFC0C0DFDFDFDFDFC07C
:10495000C0FF0000C7C7F8C0C00101F8F8DF0101BF
:1049600021210126260707C0C0D9D91EDFDFDFDFDE
:10497000F9F90021212121D91919C7C7C1393906EF
:1049800006262621FEFE00000000000000000000B8
:104990000000000000000000000000000000000017
:1049A000000000000000000000000000000080C0C7
:1049B000E070303818181818183070E0E0C00000A7
:1049C00000000000000000000000C0F8FEFF1F070C
:1049D000010000000000000000000000030FFFFEC7
:1049E000F8C000000000000000FCFFFFFF03000013
:1049F000000000000000000000000000000001FFB7
:104A0000FFFFFC000000000000FFFFFFFF000000B0
:104A1000000000000000000000000000000000FF97
:104A2000FFFFFF000000000000000F7FFFFFE0809D
:104A300000000000000000000000000000E0FEFF99
:104A40007F0F000000000000000000000103070FBE
:104A50001E383070606060606030381C1F0F0301CA
:104A60000000000000000000000000000000000046
:104A70000000000000000000000000000000000036
:104A80000000000000000000000000000000000026
:104A90000000000000000000000000000000000016
:104AA0000000000000000000000000000080808086
:104AB000808080C0C0E0F0F800000000000000002E
:104AC00000000000000000000000000000010101E3
:104AD00001010103FFFFFFFF0000000000000000D4
:104AE00000000000000000000000000000000000C6
:104AF00000000000FFFFFFFF0000000000000000BA
:104B000000000000000000000000000000000000A5
:104B100000000000FFFFFFFF000000000000000099
:104B20000000000000000000000000000000000085
:104B300000000000FFFFFFFF000000000000000079
:104B40000000000000000000000000000060606045
:104B5000606070787F7F7F7F7870606060606000E9
:104B60000000000000000000000000000000000045
:104B70000000000000000000000000000000000035
:104B80000000000000000000000000000000000025
:104B90000000000000000000000000000000000015
:104BA00000000000000000000000000080C0E0E005
:104BB000703038181818181818383070F0E0C080A5
:104BC00000000000000000000000F8FFFFFFF1C03F
:104BD0000000000000000000000000000003FFFFD4
:104BE000FFFC0000000000000000010303030301BC
:104BF0000000000000000000000080C0F0FE7F3FC9
:104C00000F01000000000000000000000000000094
:104C100000000080C0E070381C0E07030100000097
:104C2000000000000000000000000080C0E0F0383C
:104C30001C0E07030100000000000000000000003F
:104C4000F0F0000000000000007C7E7F7B79787827
:104C5000787878787878787878787878787C7E7FC3
:104C60007F000000000000000000000000000000C5
:104C70000000000000000000000000000000000034
:104C80000000000000000000000000000000000024
:104C90000000000000000000000000000000000014
:104CA00000000000000000000000000080C0603034
:104CB00030101818181818383870F0E0C08000004C
:104CC00000000000000000000000003E7F7F380070
:104CD000000000000000000000000007FFFFFFFCD4
:104CE00000000000000000000000000000000000C4
:104CF000000080808080C0C0E060783E1F0F070108
:104D000000000000000000000000000000000000A3
:104D100000000101010101030303070E1C7CF8F0F0
:104D2000C0000000000000000000E0F0F8F8F8F01B
:104D30000000000000000000000000000080FFFFF5
:104D4000FF7F000000000000000001070F1F1F3858
:104D50003070606060606060603030381E0F070344
:104D60000100000000000000000000000000000042
:104D70000000000000000000000000000000000033
:104D80000000000000000000000000000000000023
:104D90000000000000000000000000000000000013
:104DA0000000000000000000000000000000000003
:104DB0000000000000000000C0E0F8F8F80000006B
:104DC00000000000000000000000000000000000E3
:104DD000000000C0F0781E0703FFFFFFFF00000087
:104DE0000000000000000000000000000080C0F093
:104DF000381E07030000000000FFFFFFFF00000057
:104E0000000000000000000080C0F0381E07010014
:104E1000000000000000000000FFFFFFFF00000096
:104E2000000000000000000003030303030303036A
:104E3000030303030303030303FFFFFFFF03030352
:104E40000303030300000000000000000000000056
:104E50000000606060606060707F7F7F7F70606076
:104E60006060600000000000000000000000000022
:104E70000000000000000000000000000000000032
:104E80000000000000000000000000000000000022
:104E90000000000000000000000000000000000012
:104EA00000000000000000000000000000F8F8789A
:104EB0007878787878787878787878787878787872
:104EC00038000000000000000000000000FF7F002C
:104ED00000000000000000000000000000000000D2
:104EE000000000000000000000000000FEFF80E065
:104EF000703838181C1C1C1C1C3C3C78F8F0E0C0B6
:104F00000000000000000000000000000303030098
:104F1000000000000000000000000000010FFFFF83
:104F2000FFF80000000000000000F0F8FCFCFC7836
:104F300000000000000000000000000000C0FFFFB3
:104F4000FF1F00000000000000000103070F1F38D2
:104F500030306060606060606030383C1E0F070376
:104F60000000000000000000000000000000000041
:104F70000000000000000000000000000000000031
:104F80000000000000000000000000000000000021
:104F90000000000000000000000000000000000011
:104FA0000000000000000000000000000000008081
:104FB000C0E060303018181818181838F0F0E0C049
:104FC0008000000000000000000080F0FCFE0F03E5
:104FD000010000000000000000000000070F0F0F9C
:104FE000070000000000000000F0FFFFFF0180C08C
:104FF000E0E070703838383838387870F0F0E0C059
:10500000800000000000000000FFFFFFFF1E0703FC
:1050100001000000000000000000000000030FFF7E
:10502000FFFEF0000000000000033FFFFFF88000DB
:105030000000000000000000000000000000C0FFB1
:10504000FFFF1F00000000000000000003070F1F0B
:105050003C3830706060606060603030381E0F0730
:10506000030000000000000000000000000000003D
:105070000000000000000000000000000000000030
:105080000000000000000000000000000000000020
:105090000000000000000000000000000000000010
:1050A0000000000000000000000000F0F8F8F8F830
:1050B0007878787878787878787878787878F8F870
:1050C00078380000000000000000383F07010000B1
:1050D0000000000000000000000080E0781E0701D2
:1050E00000000000000000000000000000000000C0
:1050F00000000000000080E0FC7F0F0100000000C5
:10510000000000000000000000000000000000009F
:10511000000000C0F8FEFF1F0300000000000000B8
:10512000000000000000000000000000000000007F
:1051300000C0FEFFFFFFFF000000000000000000B5
:10514000000000000000000000000000000000005F
:10515000003F7F7F7F7F3F000000000000000000D5
:10516000000000000000000000000000000000003F
:10517000000000000000000000000000000000002F
:10518000000000000000000000000000000000001F
:10519000000000000000000000000000000000000F
:1051A00000000000000000000000000080C0E0F0EF
:1051B000703038181818181818383070F0E0C0809F
:1051C00000000000000000000000FCFFFFFF830063
:1051D0000000000000000000000000000003FFFFCE
:1051E000FFFC000000000000000001070F1F3F7ED1
:1051F0007CF8F0F0E0E0C0C080C06070381E1F0F87
:1052000003000000000000000000C0F0F8FC3E0EAB
:1052100007030101010303070F1F1F3EFEFCF8F007
:10522000C000000000000000007FFFFFFF800000C2
:105230000000000000000000000000000003FFFF6D
:10524000FF7F000000000000000001070F0F1E3864
:105250003830706060606060607030381C1F0F070D
:10526000010000000000000000000000000000003D
:10527000000000000000000000000000000000002E
:10528000000000000000000000000000000000001E
:10529000000000000000000000000000000000000E
:1052A00000000000000000000000000080C0E0F0EE
:1052B0007038181818181818383070E0C0800000BE
:1052C000000000000000000000E0FCFFFF0F0100F4
:1052D000000000000000000000000000031FFFFCB1
:1052E000F000000000000000007FFFFFFFC0000092
:1052F00000000000000000000000000080E0FFFF50
:10530000FFFF000000000000000003070F1F3F3CEC
:105310007878707070707038381C1E0F03C0FFFFF3
:10532000FF3F00000000000000000080C0C0C080FF
:105330000000000000000000000000C0F8FF7F1F18
:105340000300000000000000000000071F3F3F3F77
:105350007060606060603030381C0F07030100002F
:10536000000000000000000000000000000000003D
:10537000000000000000000000000000000000002D
:105380000000000000000000227B5C226D65746854
:105390006F645C223A5C227468696E672E73657272
:1053A000766963652E70726F70657274792E73659D
:1053B000745C225C2C5C2269645C223A5C22323090
:1053C00031323933343131355C225C2C5C227061EE
:1053D00072616D735C223A7B000000000C5500087E
:1053E0000000002038000000280100084455000893
:1053F00038000020200F00004401000810010000C8
:1054000043000000F8FFFFFF0040404040404040A4
:105410004040414141414140404040404040404087
:10542000404040404040404040050202020202022B
:10543000020202020202020202202020202020207A
:10544000202020020202020202029090909090908E
:10545000101010101010101010101010101010104C
:1054600010101010020202020202888888888888C0
:1054700008080808080808080808080808080808AC
:1054800008080808020202024000000000000000B4
:10549000000000000000000000000000000000000C
:1054A00000000000000000000000000000000000FC
:1054B00000000000000000000000000000000000EC
:1054C00000000000000000000000000000000000DC
:1054D00000000000000000000000000000000000CC
:1054E00000000000000000000000000000000000BC
:1054F00000000000000000000000000000000000AC
:10550000000000000000000000000000000000009B
:10551000000000000000000000000000000000008B
:10552000000000000000000000000000010000007A
:1055300010000000000000000024F4000000000043
:045540000000000067
:04000005080000ED02
:00000001FF
